:020000041000EA
:1000000000B5324B212058609868022188439860DF
:10001000D860186158612E4B002199600221596106
:100020000121F02299502B49196001219960352056
:1000300000F044F80222904214D00621196600F024
:1000400034F8196E01211966002018661A6600F04E
:100050002CF8196E196E196E052000F02FF8012189
:100060000842F9D1002199601B49196000215960AB
:100070001A491B48016001219960EB211966A021F2
:10008000196600F012F800219960164914480160C1
:100090000121996001BC002800D000471248134993
:1000A000086003C880F30888084703B5996A0420EC
:1000B0000142FBD001200142F8D103BD02B5186610
:1000C0001866FFF7F2FF186E186E02BD00000240BE
:1000D000000000180000070000035F00212200005C
:1000E000F4000018222000A00001001008ED00E03C
:1000F00000000000000000000000000074B24E7A12
:1001000000200420F7010010C3010010C5010010F9
:10011000C1010010C1010010C1010010C101001097
:10012000C1010010C1010010C1010010C701001081
:10013000C1010010C1010010C9010010CB01001065
:10014000CD010010CD010010CD010010CD01001037
:10015000CD010010CD010010CD010010CD01001027
:10016000CD010010CD010010CD010010CD01001017
:10017000CD010010CD010010CD010010CD01001007
:10018000CD010010CD010010CD010010CD010010F7
:10019000CD010010CD010010CD010010CD010010E7
:1001A000CD010010CD010010CD010010CD010010D7
:1001B000CD010010CD010010CD010010CD010010C7
:1001C00000BE00BE00BE00BE00BE00BEEFF3058054
:1001D000103800BEF2EB8871FCFD031020FE031006
:1001E0003402001090A31AE700201F49086006C8D7
:1001F00081F3088810471D48006800282FD10DA4FE
:100200000ECC002902D000F012F8F9E71849194A7B
:10021000002000E001C19142FCD1174988471749ED
:1002200088471749884700BEFDE701C901C29A42C5
:10023000FBD3704720FE0310C000002010060020F2
:100240007003041000000420000004207003041058
:10025000001004200010042000000000704709482E
:1002600003F0CAF90047000008ED00E0000000D0EC
:100270001006002068140020711E00109503001065
:10028000651F00105756000006005250ABB3605374
:100290001084001006005250861C030220840010B7
:1002A000060052505422A29D2C840010050052508A
:1002B000DE65F46870030410F8B5C0460448054BC9
:1002C00010B5834203D0044B002B00D0984710BDDB
:1002D0001006002010060020000000000648074914
:1002E000091A8B10C90FC91810B5491003D0044B57
:1002F000002B00D0984710BD1006002010060020EB
:100300000000000010B5074C2378002B09D1FFF73F
:10031000D5FF054B002B02D0044800E000BF0123AD
:10032000237010BD800800200000000060810010D4
:10033000054B10B5002B03D00449054800E000BF71
:10034000FFF7CCFF10BDC04600000000840800206D
:100350006081001070B5050004F05EF8041E13D132
:10036000002D10DD0121002004F046F8642000F08B
:10037000B7FF0021002004F03FF80134642000F0B2
:10038000AFFFA542EED170BD014803F02DFFFAE7A3
:100390006081001010B503F033FF0A20FFF7DAFF89
:1003A000002010BD094A10B59446402483006344E0
:1003B0001A68C00062408034144080225201134306
:1003C0001C60034B9C466044416010BD04C001406A
:1003D00000400140074B80009C4660440368C90010
:1003E00092000A435A400C231A4080235B010343C6
:1003F0001A60704704C00140084B80009C4660446E
:10040000002905D0802302229B0103431A60704714
:10041000C02302229B0103431A60F8E704C0014095
:10042000D0231B061B6830B50500584243412F20DE
:100430005B4283430D48EC08844607202840800037
:10044000814020000A4D3C3063448000A4004151AB
:100450001B19002A04D0802292011343196030BD79
:10046000C022920113431960F9E7C04630410140B0
:1004700000400140D023F0B5C6461B0698461B68D5
:100480000C4F9B001600FA5804000D0000B51042F6
:1004900009D1290014430D203200FC5000F04AF924
:1004A00080BCB846F0BD01F079FD43461B689B0057
:1004B000FA58EEE72C13002010B504000D2000F0D0
:1004C00033FAD0231B061B6802499B005A58A243EB
:1004D0005A5010BD2C1300200123D0228340120655
:1004E00093629361094A40219446830063441A68E9
:1004F000C0004A40803111408022520113431960EC
:10050000034B9C46052360444360704704C0014090
:1005100000400140024B18688007C00F7047C0467A
:1005200000C00640EFF3108072B6034A1368002B38
:10053000FCD0BFF35F8F70472C0100D0BFF35F8FFB
:100540000022024B1A6080F3108870472C0100D003
:1005500070B5EFF3108C72B60D4D2B68002BFCD0EC
:10056000BFF35F8F0724CB08C618C05C01230C4083
:10057000A3401C000440034207D118433070BFF36E
:100580005F8F2C608CF3108870BD100001F0EEFCC2
:100590002C0100D0F8B54746CE46884680B5EFF32B
:1005A000108C72B6214D2C68002CFCD0BFF35F8FED
:1005B0009A422CD8D4080727055D06190124174054
:1005C000BC402C421FD007210127894609E0D408EE
:1005D000055D06194C4639001440A1400C00294223
:1005E00011D001329342F2D201204042BFF35F8F1B
:1005F00000220E4B1A608CF3108800280FDBC0BC61
:10060000B946B046F8BD254310003570EEE7BFF39C
:100610005F8F00232B608CF31088012040424346FB
:10062000002BECD0089801F0A1FCC0462C0100D0B2
:1006300030B5EFF3108C72B60A4C2368002BFCD057
:10064000BFF35F8F072301220B409A40CD08435D23
:1006500093434355BFF35F8F002323608CF31088CF
:1006600030BDC0462C0100D00021044B044ABFF32A
:100670005F8F02C39342FAD17047C046000100D099
:10068000800100D0044A1078431CDBB2172B00D93C
:10069000102313707047C0461805002001238340C3
:1006A000002904D0034A1360034A13607047034AC9
:1006B0001360FBE780E200E000E100E080E100E0A1
:1006C00001238340014A13607047C04600E200E006
:1006D000024B10309B688000C058704700ED00E06E
:1006E00070B50D00EFF3108672B60F4A1368002B39
:1006F000FCD0BFF35F8F0D4B10309B6884001B59FB
:100700000B4A934203D09D4201D001F047FC074BB6
:100710009B681D51BFF35F8FBFF35F8F0022024BB9
:100720001A6086F3108870BD240100D000ED00E04F
:10073000CD010010F0B557464E46DE464546E0B5C1
:1007400085B0060000911700EFF3108B72B66A4A6D
:100750001368002BFCD0BFF35F8F0025674B5D57FC
:100760009A46002D00DA8BE06B00654C01935B1913
:100770009B009846A146C1444B4652469B79103691
:100780001370604BB6009B6899590B1B2F2B33D904
:100790005D4B994200D0ACE0019B42469C465B4BCE
:1007A0006544AD0063535A4B0232A218043B9B1AB6
:1007B0001B05584A5B0D651913436B80564B01218D
:1007C000AB80FF23AB71009BEF71AB604B460B43DB
:1007D00019004C4B9B689951BFF35F8FBFF35F8F3C
:1007E0000022454B1A608BF3108805B0F0BCBB4665
:1007F000B246A946A046F0BD01200A008243D37943
:100800008C46BB4231D84546130044491B1B5B4113
:100810005943090D3D4B63533D4B02356519043B6C
:100820005B1B1B053B4D5B0D2B43AA464D466B8066
:100830000425AC465546E044131F44441B1B1B05CE
:100840005B0D1D434B46997100999D809960494607
:10085000DF71334B01431360BBE75800C0188000C1
:100860002018C179B94211D902000623D356002BB2
:10087000F3DA0293131D9A462A4B6146039319E05B
:1008800001F08CFB002553465D576DE7908802937D
:100890004005131D9A46031561469C464046D444C4
:1008A000634604302018181AE0230005400D1B028F
:1008B0001843039004235B429C46E14450464B4658
:1008C0001B1A1B055B0D9C46124B9571984663469F
:1008D000404603439380019B5A199200039BA4183E
:1008E000A380029B0E4AA371009B2260E771A36064
:1008F0006FE701F053FB4FE7240100D063140020A1
:100900001C05002000ED00E0CD01001000A1FFFF5C
:100910004C05002000E0FFFF01BDFFFFAAAA000078
:100920000148804701BD0000F0B5DE4657464E46FF
:100930004546E0B50C0083B0EFF3108872B65D4A0F
:100940001368002BFCD0BFF35F8F5B4B5B499A6849
:10095000030010339F00D5598D4239D0A5424AD0AB
:10096000574EAA1B2F2A33D8012292468240914625
:100970004846544A1268104001904846524A106056
:10098000BFF35F8FEFF305829346002A35D0934281
:1009900001D001F003FB2A0053469A439068844239
:1009A00008D175E04B005B189B00F3189868A042D3
:1009B00034D01A00062151560029F3DA844253D06C
:1009C000019B002B26D04A46404B1A603D4B1A60D3
:1009D000394B9B68DD51BFF35F8FBFF35F8F002200
:1009E000344B1A6088F3108803B0F0BCBB46B246A3
:1009F000A946A046F0BD0D00EAE72A0053469A43F7
:100A000090688442D6D1062010561300002809DAD7
:100A10000D0031E04A462C4B1A60D9E706201856E3
:100A2000002822DB42001118890074188A46A16848
:100A30009960E179D971062161569971002925DB08
:100A4000A488F11A6405241554440919E024090501
:100A5000490D24022143998013181D4A9B001178E7
:100A6000F31899711070ABE713005946002914D19F
:100A7000FF3191711749918015490A789A71164A88
:100A80009B1B5B415A43120D0A7099E71349E2E739
:100A90000620105613000028C4DA114A1149D21A50
:100AA000083A5002400D014399800F4952080A4309
:100AB000DA8085E7240100D000ED00E0CD010010D0
:100AC0001C05002000E100E080E100E080E200E0A1
:100AD0006314002001BDFFFFAAAA000001BD0000B1
:100AE0005605002000F0FFFF00F8FFFF032310B5BC
:100AF0000400074A18409446C0009C43FC338340DE
:100B00006444226881409A4313000B43236010BD64
:100B100000E400E070B5EFF3058101240443EFF336
:100B2000108C72B6214A1368002BFCD0BFF35F8F84
:100B30001F4B05001F4AED1A6D416A43120D1E4DF1
:100B40008900AE6852B27658A6421CD0062159568A
:100B500091421CD012215956914222D01E21595641
:100B6000914220D02A2159560324914210D0134B90
:100B700019781A708171BFF35F8F00220B4B1A60D6
:100B80008CF3108870BDAB680D4C5C50EFE700240F
:100B90006100091989005B18FF2199710949998041
:100BA000E5E70124F4E70224F2E7C046240100D07F
:100BB0001C050020AAAA000000ED00E0631400203C
:100BC000CD01001001BDFFFF054B064A1360064A28
:100BD000136053609360D3601361536193617047F6
:100BE0008080808000E400E004E400E01F2110B574
:100BF000091A0248FFF71CFD10BDC046651400200D
:100C000010B5084B084C82B0010000930022052368
:100C10002000FFF7BFFC002801DB1F23181A02B0D9
:100C200010BDC046748100106514002070B504002A
:100C30000E001500FFF726FD0100200000F006F869
:100C4000A680E580BFF35F8F70BDC046024B9C4617
:100C500061448900016070474000003410B5040011
:100C6000FFF710FD01002000FFF7F0FFFF232371C5
:100C7000BFF35F8F10BDC04610B50400FFF702FD43
:100C800001002000FFF7E2FFFF23A380BFF35F8F87
:100C900010BDC04683680B4810B584466144624469
:100CA0001201090159189B185C684A680120944296
:100CB00001D802D00020C0B210BD1A680B689A4259
:100CC000F9D8F7E7FFFFFF0F0A4B1968EFF3108021
:100CD00072B60A68002AFCD0BFF35F8F1B68BFF3AF
:100CE0005F8F00221A6080F3108840BF002000212F
:100CF0007047C04640140020F8B5574645464E465A
:100D0000DE46E0B598460CAB1C780DAB1B780700AF
:100D100091469A460568002C5ED1AC7B002C3BD0F6
:100D2000660029683619033E89194B78AB73002B8E
:100D300000D1EB7300238B704B700B702D4BE218BE
:100D4000BB6812019B184A461A6042465A600A9ACA
:100D50009A600B9ADA6000238B704B700B706B7B80
:100D60009B46002B2BD022005946A8686B689847F9
:100D70002A68002816D05B4658465B005B449619EB
:100D8000033BB070D118D35C002B00D073705B466E
:100D90000C706B735C4513D0F0BCBB46B246A946E1
:100DA000A046F8BD5B465B005B44033BD3189C70D8
:100DB0009119925D002A00D05A705B460B706C73DB
:100DC0004A464346387D00F0ADFB051E0AD10E9B16
:100DD000002BE1D01D70DFE7660029683619033E5D
:100DE0008919ABE75346002BF1D12100386800F098
:100DF000C3FDECE7FFFFFF0FF0B5DE4657464E465A
:100E000045460023E0B58BB00893674B8200D45869
:100E100000239B46099000F025FB02000B00606850
:100E2000EFF3108A72B6564601680029FCD0B2462C
:100E3000BFF35F8F21684F7B8C46002F2ED0A568B3
:100E40005A49A946791809018944494608684968F8
:100E500005000E00AD1A9E41002E5FDD02000B0062
:100E6000099800F05FFB00230022994600230692B8
:100E70000793002398466368BFF35F8F5A461A6052
:100E80008AF310884346002B12D10028C3D10BB03F
:100E9000F0BCBB46B246A946A046F0BD00230022E6
:100EA0009946002306920793002300209846E2E724
:100EB000089B494618023843C047626805000E0087
:100EC000EFF3108A72B61368002BFCD0BFF35F8F6C
:100ED000002E40DB2B00334302D02369002B55D179
:100EE0002368D97B002905D01A6848004118521898
:100EF000033A57709A7B002A00D19F73DF73E26830
:100F0000013FD35D0133D3555B4623616368BFF373
:100F10005F8F5A461A608AF310887CE7002E01D151
:100F2000002D9BD10021604600F0A4FC4B461A68BE
:100F30005B68069207934B469B6898464B46DB6876
:100F40009946E368DB19013B1B7808931B020343B6
:100F5000236100208FE72369002BC1D0069A079BED
:100F60008021521BB34109068B4202D30122104B50
:100F700052420021049101310391494601914146B9
:100F8000200002970091FFF7B7FEBDE700F06AFA74
:100F90002A00330012184B41802109068B42E8D306
:100FA0000122034B5242E4E71C130020FFFFFF0F16
:100FB000FFFFFF7F10B5144C6368002B04D00A219B
:100FC0001248FFF743FE10BD2300114A102120688C
:100FD00000F066FB032000F039FA032000F010FB5C
:100FE00003200C4900F058FAFFF74CFB0A4B9C46D3
:100FF00003232375D0231B061B6860446375074BCE
:1010000080006060DC60DAE76405002040140020A6
:10101000950C0010F90D0010400000341C13002046
:101020000048704764050020F0B557464E464546D7
:10103000DE46E0B585B0019310AB1B780600039344
:1010400000239A46984600927268EFF3108B72B6AE
:101050001368002BFCD0BFF35F8F3568AC7B002C8E
:1010600000D16FE067002B683F19033FDB195A7806
:10107000AA73002A00D1EA734B4AA118B268090189
:10108000521800980199106051600E9991600F9963
:10109000D16042469A705A701A706B7B9946002B49
:1010A00000D170E022004946A8686B6898472A681A
:1010B00000285BD04B4648465B004B44D719033BA6
:1010C000B870D118D35C002B00D07B704B460C70ED
:1010D0006B734C4558D0F3681B19013B1878736843
:1010E000BFF35F8F42461A608BF310885346002B84
:1010F00008D10002204305B0F0BCBB46B246A94669
:10110000A046F0BD039B002B4BD00E9B00200F99F7
:101110009847030004000D000B4342D000291ADA5F
:10112000009A019B121BAB41009201938022120690
:10113000934204D301231D4C5B4200930194039B13
:101140009A4681E77368BFF35F8F1C608BF310884A
:1011500001204042CFE700F085F9802224184D415C
:101160001206009401959542E9D3E3E74B465B00F4
:101170004B44033BD3189C70D119D25D002A00D098
:101180005A704B460B706C73307D009A019B00F0D7
:10119000C9F9824600289ED02100306800F0ECFB9F
:1011A00099E70020A7E7C046FFFFFF0FFFFFFF7F83
:1011B000F8B50B0004004168EFF3108572B60A68B9
:1011C000002AFCD0BFF35F8F2068D9B2427B8A42ED
:1011D00009D0FF261E4002687700BE199219033A13
:1011E0009278002A12D0FF26E2681E409219013A36
:1011F0001B0A1278DBB29A420DD000206368BFF35D
:101200005F8F00221A6085F31088F8BD216999422A
:10121000F3D12261F1E700F0AFFBEFE7F0B5040096
:101220000D0006267642F717C64636196F4100B5FF
:1012300084B08F4214D811D000F014F932003B0072
:10124000121A8B41002B15DC002B3ED02000290008
:1012500000F012F904B080BCB846F0BD8642EBD96C
:101260000026002700F0FEF832003B00121A8B41E6
:10127000002BE9DD002302930193154B320000930C
:1012800014483B00FFF7D0FE0028DFDB0023984620
:10129000BC46114A114F7B6A9C4504D8B96AB142D9
:1012A000D4D29C45D2D11168EFF3108072B60B688E
:1012B000002BFCD0BFF35F8F1368BFF35F8F4146F5
:1012C000196080F3108820BFE5E7002ABED0D1E77F
:1012D000C90C0010640500204014002000400540A7
:1012E00070B5060000F0BEF8FA2204000D000023DD
:1012F00030000021920002F047FD8023001969416F
:101300001B06994202D3012002494042FFF786FFA3
:1013100070BDC046FFFFFF7F70B5EFF3058305008A
:101320000C0084B0002B0AD0164A0020536A9C425D
:1013300003D8926A0130AA421FD304B070BD124E86
:1013400002930193114B0200009330000B00FFF752
:101350006BFE011EE8DD20BF3000FFF729FF094BBF
:1013600000205A6A9442E8D89B6A0130AB42E4D22A
:10137000A41A631E9C41E0B2DFE7E31A5A1E9341B0
:10138000D8B2DAE70040054064050020C90C00101F
:10139000F0B5EFF30582D6464F4646461000C0B57D
:1013A0001038EFF3108872B6214C2368002BFCD064
:1013B000BFF35F8F0123190081401E4D1F00696339
:1013C000AA461D4D29601D4D2E78AC463500C540FE
:1013D0002F402B4215D053465F6A194B8500EB58BE
:1013E0009F4218D36246174B8E43EB581670BFF3DB
:1013F0005F8F0022226088F31088002B06D0984768
:1014000004E0BFF35F8F276088F31088E0BCBA4622
:10141000B146A846F0BD0C4B92009C46624413684E
:101420001360BFF35F8F0023236088F31088EDE71C
:10143000280100D0004005403C70054064140020A5
:1014400044140020A4080020D03F054010B5034BF1
:1014500001001800024AFFF77BF810BD611400205C
:1014600098810010034B596A0A00986A596A8A42A7
:10147000FAD1704700400540064A536A9942FCD8A9
:1014800007D1044B02E05A6A914202D19A6A824221
:10149000F9D370470040054070B504000D00EFF32C
:1014A000108672B61A4A1368002BFCD0BFF35F8F08
:1014B000002D1BD02000FFF70BF9164981420AD0FE
:1014C0002000FFF70DF901212000FFF7E7F80123C5
:1014D000A340114A1360114BA400E550BFF35F8F86
:1014E00000220B4B1A6086F3108870BD0121A140C9
:1014F0000A4BA200D5500A4B20001A788A430549AE
:101500001A70FFF711FA00212000FFF7C7F8E5E78E
:10151000280100D09113001038600540A408002075
:1015200064140020F0B54F46D6464646C0B50700C5
:101530002E4C616A0D00A66A616AA942FAD18B42FB
:1015400008D805D00120E0BCBA46B146A846F0BD97
:10155000B242F7D9EFF3108A72B625480168002924
:10156000FCD0BFF35F8F0125BD4022491F4C884648
:10157000097889462943C9B28C46414660460870BD
:10158000391D890065630A511B49B8004350216A1F
:101590000020294219D0616A0800A66A616A814266
:1015A000FAD18B4219D801D1B24216D8CC450BD012
:1015B0000E4B1F221D625D6301233A4093400F4A88
:1015C000136043464A461A700120BFF35F8F002222
:1015D000074B1A608AF31088B5E70020BFF35F8FCE
:1015E0000022034B1A608AF31088ACE700400540E4
:1015F000280100D0641400204414002080E200E0A0
:10160000EFF3108C72B60A490B68002BFCD0BFF3C5
:101610005F8F01238340074A0748136202789A4389
:101620000270BFF35F8F00230B608CF3108870474C
:10163000280100D0004005406414002070B505006A
:101640000E001400002923D0002A12D080686B6895
:101650009847296800280ED063001B197200033BCD
:101660009219CB18033A9E7088188A5C002A11D10F
:101670000470300070BD73009B196200033B1219A7
:10168000CB18033A9C7088188A5C002A05D1067032
:101690002000EFE75A700470EBE75A700670F7E726
:1016A00030B583600023CCB24373013304734260CE
:1016B0008373C4730D000068012C06D9421C0133EA
:1016C000DBB2137003329C42F9D1FF2129404B0059
:1016D0005B18C01800230338437030BD70B5050097
:1016E0000C1E07D0630001681B19033BCB185A7806
:1016F000002A01D1200070BD50008018033809185D
:1017000000204E784870210058702800FFF796FF9F
:10171000310004002800FFF7E1FF0600002C26D06E
:101720000028E7D021003200A8686B689847296834
:1017300000280ED073009B196200033B1219CB18CE
:10174000033A9C7088188A5C002A00D05A70067090
:10175000D0E763001B197200033B9219CB18033AC0
:101760009E7088188A5C002A00D05A700470340079
:10177000C0E7C046F0B557464546DE464E46E0B5A2
:101780000D006F0001687F19033F0400C85D83B03E
:101790000192CA19002850D043001B18033BCB18F4
:1017A0005E78B446002E1AD1019E002E42D0E67B10
:1017B000002E04D073009B19CB18033B5D70A37BF4
:1017C000002B00D1A573E57300282FD1002353709F
:1017D00003B0F0BCBB46B246A946A046F0BD7200BD
:1017E0006244033A8A18517888460021517089462C
:1017F0005970320001002000FFF720FF4346824667
:10180000002B07D05B0021684344033BCB185A7878
:10181000002A16D1424651462000FFF70FFF2168EB
:10182000019BCA19002BC2D10028CFD043001B183E
:10183000033BCB1800219970C8E7019B002BB6D160
:10184000C4E7500080180338091848788346484692
:101850004870587041462000FFF7F0FE5946804618
:101860002000FFF73BFF414602002000FFF7E6FEA5
:101870008046CFE7F0B557464546DE464E46E0B5D2
:1018800083B00191457B04006F0000687F19033F1E
:10189000C15DC219002952D04B005B18033BC3182D
:1018A0005E78B446002E1CD1019E002E44D0E67B0B
:1018B000002E04D073009B19C318033B5D70A37BFB
:1018C000002B00D1A573E573002931D10023280036
:1018D0005370617303B0F0BCBB46B246A946A04644
:1018E000F0BD72006244033A8218507880460020AE
:1018F00050708146587032002000FFF79FFE43462B
:101900008246002B07D05B0021684344033BCB1881
:101910005A78002A17D1424651462000FFF78EFE22
:10192000019B01002068C219002BC0D10029CDD035
:101930004B005B18033BC31800209870C6E7019B5F
:10194000002BB4D1C2E7500080180338091848783A
:10195000834648464870587041462000FFF76EFEA7
:10196000594680462000FFF7B9FE4146020020009C
:10197000FFF764FE8046CEE770B5050000292CD045
:10198000437B8B422ED04C0000686418033C041942
:10199000A278002A21D053009B18033BC25CC618D2
:1019A0008A4202D11BE0002A08D053009B18033B57
:1019B000C3185A788A42F6D162785A7000230122FD
:1019C0002800A3706370FFF7D5FE697B0200280032
:1019D000FFF734FE6873012000E0002070BD6378DB
:1019E0003370EBE701221900FFF7C4FEF2E7C046AF
:1019F000F8B5040006200D0000F0C4F9002844D01A
:101A00002A4B2B49E21853425A418023DB039C4660
:101A10009205284B62441A60274B1A6010008B68AD
:101A20009843FBD1214B254AE31859424B41802171
:101A30005B0049000620995200F0A4F92900C0007B
:101A400001F034FEC30921D1402701212600802561
:101A50006162A36200232C36AD0135432B60062062
:101A600000F090F93900800001F020FE6022E36A66
:101A700053400E321A4080235B0133431A60104BEF
:101A8000236310232B600D3BA364F8BD0D4A9342E2
:101A900003D900230C4F0D49D8E77F2202400132C1
:101AA00052089F011900BF181300CFE70080FCBF48
:101AB00000C0004000E0004000F00040541400204E
:101AC00001030000FEFF0000C0FF3F00FFFF000019
:101AD00010B50C2082B000F0AFF9FEF71BFD002816
:101AE00010D0864B86488649864A186059609860AF
:101AF000D960186159619861D961186259625A6256
:101B000002B010BD804CA06700F09EF901227F4B0F
:101B10001A60636C012BFCD103227D4B1A607A4A58
:101B2000936B012BFCD1013301217A4A7A4800934F
:101B3000043300F02DF90523784A009301217848F9
:101B400000F026F9774B5A68FF2A02D8802252000B
:101B50005A6080226E4B694C12011A60216900297B
:101B600005D0606901F0A2FD01300138FDD1E0220D
:101B70006C4B6D4819680A40026002221968514096
:101B800001320A40042102609A681142FCD080218F
:101B9000664A09011160802252005A60644B236139
:101BA000644B5968FF2900D85A6003220121574B22
:101BB0001A60604A93681942FCD0E0231068034021
:101BC0005D480360126803234A4002211340594ACA
:101BD000036093681942FCD08021584B09011960B9
:101BE0008021574B490051606361564B5A68FF2A68
:101BF00000D859608022544B12011A60E169002913
:101C000005D0606901F052FD01300138FDD1E023BB
:101C10004C4A11680B404D490B6080214C4B090127
:101C200019608021364B49005160E361494B5A6885
:101C3000FF2A00D859608022474B12011A60216A9E
:101C4000002905D0606901F031FD01300138FDD176
:101C5000E023404A11680B4040490B608021404B13
:101C60000901196080235B0053608022244BD2025B
:101C700023623C4B5968914200D25A6080223A4B11
:101C800012011A60616A002905D0606901F00EFD39
:101C900001300138FDD1E023324A11680B4033494D
:101CA0000B608021324B090119608023DB025360F5
:101CB000144B63622F4B5A68FF2A02D880225200CD
:101CC0005A6080222C4B12011A60A169002905D0AC
:101CD000606901F0EBFC01300138FDD1E023254AB9
:101CE00011680B4025490B608021254B09011960C3
:101CF00080235B005360124BA36101E710060020B4
:101D0000006CDC021BB70000008000403CB00040CB
:101D100030B00040002F685900800240008C864798
:101D200000C00240308000403090004030A00040B1
:101D3000001BB7003C8000403C9000403CA00040AD
:101D4000405973075480004054B000405490004004
:101D500054A000406080004060B0004060900040AF
:101D600060A000406C8000406CB000406C9000406F
:101D70006CA000404880004048B0004048900040BF
:101D800048A00040014B8000C0587047100600205A
:101D9000F8B504000C2017001D000E0001F086FCB1
:101DA00043011B1A9901C91AC90009188901380091
:101DB00001F07CFC069B29041B0319432368002BBC
:101DC00020DB194B194DE3185A425341802252012E
:101DD00094461B03164A63441360164A13601F009F
:101DE000AA689743FBD1C023221D9B0113432122E4
:101DF0002660A0601A602268002AFCDA0822E160EE
:101E00001A60F8BD3F2322681340B342D9D1A368BA
:101E10001B051B0D8342D4D1EE22E368D20213408E
:101E20008B42CED1EDE7C0460040FDBF00C0004070
:101E300000E0004000F000408023024A9B00034382
:101E4000D362704700800540AA23064A1B01136035
:101E50002F230549D360054B19605368002BFCDA2A
:101E60007047C0460040024000B0FA0000600240E7
:101E70002C4B2D4A70B51A602C4A2D4B2D491A60F7
:101E800014008B689C43FBD12B4D2C4EB54208D2DD
:101E9000013E761BB60808CD984723000134B342B3
:101EA000F9D1FFF715FE264A214B1A60214A9368A3
:101EB000DB43DB01DD09002BF9D14022214B224C11
:101EC000224E9A675A671A67DA66B44208D22368C4
:101ED0002000002B20D00834FEF7CEFEB442F6D30B
:101EE0001B4C1C4EC022B168200001F0A9FFB46059
:101EF000FEF7BAFBFEF768FEFFF75CF8164C174ECC
:101F0000B44208D2013E361BB60808CC98472B00D5
:101F100001359E42F9D170BD0834FEF79FFEB442F0
:101F2000D5D3DDE700E00040BFCDFBFEFE7F3C00E7
:101F300000F0004000C00040F80500200806002026
:101F4000FFFFFF0100F00140F0050020F805002030
:101F50000000002000ED00E0080600201006002030
:101F600000BEFDE710B5FFF7FBFFC0460FB400B59C
:101F7000084883B002F046F8049B002B07D005A95F
:101F80001800019101F012FB034802F03BF8012018
:101F9000FFF7E6FFBC8100100486001010B5014871
:101FA000FFF7E4FFCC8100107047C046F8B55746F4
:101FB0004546DE464E46E0B598460A9B06009A46E0
:101FC0000D9B0F00934615009B0710D10B9B0C9A9D
:101FD00093420CD213005C460B9A9D1A5D4422007A
:101FE0004346013439002020B047A542F7D10B9C6D
:101FF0006319002C09D01D0053462A1B013C185DB3
:1020000039004346B047002CF6D10D9B9B070ED5F7
:102010005B46EC1A0C9BA34209D999462A00434619
:10202000390020200134B0470135A145F6D82800F9
:10203000F0BCBB46B246A946A046F8BDF0B54F4637
:102040004646D646C0B584B098460EAB1B7894463B
:102050009946129B0D9C109F119E9A0724D4002E26
:102060006AD1BC4220D201221A409246202C00D1D3
:10207000CBE00C9A551E302201E0202C30D00134E8
:102080002A55A742F9D85246002A0DD0B4420BD2A5
:102090000C9A551E3022202C02D126E0202C61D033
:1020A00001342A55B442F9D1DA0634D55A0562D43E
:1020B000002C5CD10F9A102A00D191E0022A00D1A5
:1020C000A1E030220C9C227001244A46002A5CD1F7
:1020D0005A0700D47DE02B220C9D2A5501341CE0C8
:1020E0005246002A02D0202E3CD92024DA0614D5EC
:1020F0005A0512D4202F00D197E0202E3BD1202664
:102100001F2234000F9D102D00D181E0022D4CD0F4
:1021100030250C9FBD54202CD7D103930C9B6246D5
:102120000093029643460194FFF740FF04B0E0BCE1
:10213000BA46B146A846F0BD012215001D40AA4688
:102140001A4227D04A46002A33D10C321A4230D1E3
:10215000BC429BD2202C00D08BE7202EC5D8DA06BB
:10216000A4D4DAE72024DA06D7D55A0503D4A74247
:1021700021D0B4421FD00F9A102A21D0022A10D0A9
:10218000202CCAD022000134C2E72D220C9D2A55F2
:102190000134C2E7BC4200D386E7202C00D068E7B8
:1021A000E1E7202CB9D02200013462250C9FBD54F8
:1021B000E6E7013ECCE7621E012C00D17AE7A1E7F9
:1021C0009A0616D4202CA8D078220C9D2A550134CA
:1021D000D6E71A07A1D520220C9D2A5501349CE789
:1021E0009A060ED478220C9C22703022627002244F
:1021F0006BE7202C91D058250C9A121915700134D8
:10220000BEE75822EFE76222EDE7002AA7D1AAE74E
:10221000023C9D0604D478250C9F3D551400B1E77F
:1022200058250C9F3D551400ACE71F226AE7C046B5
:1022300010B5002800D110BD01F098FEFBE7C046A4
:102240000B0010B5002802D049681B68984710BDE4
:10225000F0B557464E464546DE46E0B599B0824653
:10226000894690460993229A239B1000190001F099
:10227000CEFC002800D0C8E0229823990122D54B3B
:10228000524201F0BFFC002800D0BEE02298239902
:102290000122D14B524201F0A7FC002800D0B4E04B
:1022A000229823990022002301F09EFC002800D0F0
:1022B000E9E1229E239F8023269ADB001A400D929B
:1022C000269A1A4201D1062324933B00334300D0BF
:1022D000B4E0269B1B0500D5BFE1002300240A9330
:1022E0000B94002304250C93259B0024AB4200D9BA
:1022F0005C1B0223269A1A400D92269A134203D0A1
:102300006B426B415B421C400C9B002B07D00A9A2E
:102310000B9B3000390001F00EFC06000F002298E4
:1023200023990022002301F05FFC002803D08021C4
:1023300009067B181F00269AA84B009601971340A8
:10234000099E0493249B039402934246330049461A
:10235000504600F0A7F90400002D67D02020269AEF
:102360004946024013005A4253415B42621C1840E6
:102370000A92330022004530D0470C9A6F1ED317C3
:10238000D4185C40D30F9B46002501E0202D13D0CC
:1023900008AA94461F23200063440A2101355E19D0
:1023A00001F084F93031317020000A2101F07EF90A
:1023B00026000400092EE9D8052306930023049380
:1023C0000A3303935B46099E029310AB0A9A00936B
:1023D00049463300504605970195FFF72FFE0D9AA9
:1023E0000400002A22D04246851A259AAA421DD905
:1023F000B046574616002200434649462020013584
:10240000B8470134AE42F6D810E0269B424604930A
:10241000259B49460393249B50460293229B239C71
:1024200000930194099B00F03DF90400200019B0CD
:10243000F0BCBB46B246A946A046F0BD684B78004A
:102440009C46400D604401F0F5FB664A664B01F086
:102450008CFB664A664B01F069FB664A3B031B0B2B
:102460001A4304000D00644B11003000002201F0FB
:1024700058FB624A624B01F078FB02000B0020001F
:10248000290001F053FB01F0EDFB0C9001F0D2FBB1
:102490005C4A5D4B04000D0001F067FB00225B4BC2
:1024A00001F044FB01F0DEFB594A8346594B200002
:1024B000290001F05AFB040058460D0001F0BAFB58
:1024C000554A564B01F051FB02000B002000290039
:1024D00001F027FB02000B000A900B9101F045FB75
:1024E00004000D000A980B9902000B0001F01EFB7E
:1024F00000220E900F914A4B2000290001F01BFB97
:102500000022484B01F012FB02000B0020002900C2
:1025100001F011FB0022444B01F008FB02000B000C
:102520002000290001F007FB0A9A0B9B0D00802177
:102530000400C905002001F0F4FA02000B0020009D
:10254000290001F0F3FA394C02000B000E980F99A4
:1025500001F0F1FA5C440022264B01F0E7FA230572
:10256000002201F002FB04000D0002000B0030000D
:1025700039000A940B9501F037FB00285ED1230047
:102580002A00C6250C9963318D42AD4126996D42D2
:102590000435090500D4A7E6134364D030003900A0
:1025A000234A244B01F026FB002807D000223000EC
:1025B0003900214B01F018FB002854D1249B002B3B
:1025C00000D191E60D9B5A1E9341249AD31A24936D
:1025D0008AE6C046FFFFEF7FFFFFEFFFFFF7FFFF39
:1025E00001FCFFFFFB799F501344D33FB3C8608BBE
:1025F000288AC63F0000F03F0000F83F61436F6348
:10260000A787D23F71A379094F930A400000E03FAA
:102610001655B5BBB16B0240EF39FAFE422EE63FCC
:1026200000002C400000244000001840FF03000080
:102630002D431CEBE2361A3F80842E410C9B002276
:10264000013B0C932000164B290001F074FA0A009C
:10265000010003000A910B9293E7002300240A93E0
:102660000B9400230C93249A0C9B9A4214DDD31AEA
:10267000013B24938023269ADB001A430023002584
:1026800026920C9330E6802212069446229B1E006E
:10269000239B63441F000EE600232493EAE7C04611
:1026A00000002440F0B54546DE464E465746E0B5AC
:1026B00095B08B46904699461E9A1F9B0A9019002A
:1026C0001000209D01F0A3FA002800D0B0E11E9870
:1026D0001F990122C74B524201F086FA002800D010
:1026E00037E11E981F990122C34B524201F08AFA2A
:1026F000002800D0A7E01E981F990022BF4B01F0D0
:1027000081FA002800D088E01E981F990022BC4B57
:1027100001F06AFA002800D07FE01E981F9900227D
:10272000002301F061FA002800D0FAE000230B93A7
:102730008023229C229ADB001C401A4200D102E135
:10274000092D00D87EE106A98C462C001722002313
:102750003021093C62440133D154EF1A202B00D1BF
:1027600032E1A342F7D10022A44B069207931E98B0
:102770001F9901F077FA050001F05CFA02000B00E6
:102780001E981F9901F0CDF9069A079B01F0EDF90B
:102790000890099101F08AFA060001F047FA020058
:1027A0000B000898099901F0BCF90022954B08909C
:1027B000099101F027FA002800D1D2E0013630005B
:1027C00001F034FA069A079B01F014FA002801D0B0
:1027D00000260135AA46002F00D098E0280001F01D
:1027E00029FA02000B001E981F9901F09AF9854BF7
:1027F000002206000F0001F0F7F90CAB9A46002802
:1028000045D10022300039007E4B01F0FBF9002851
:102810003DD1EB073BD5013539E0229B424604937D
:10282000219B594603930A981E9B1F9C0295009377
:1028300001944B46FFF70CFD15B0F0BCBB46B24609
:10284000A946A046F0BD229B5B0767D403226E4BCE
:1028500022990192039121990291009342464B469D
:1028600059460A98FFF7A2FBE6E706AA9446172303
:10287000280063440A2101341E1900F0EFFE3031B4
:10288000280031700A2100F0E9FE051E76D0202CC8
:10289000EBD10323229A1340012B1DD1219B002B46
:1028A0001AD00B9B002B00D0BBE0229A0C331342B2
:1028B00000D0B6E0219BA34200D887E006AB9C463F
:1028C00017223023624404E02199013413558C42CD
:1028D00059D0202CF8D12024229B01940393219BD2
:1028E00002935346B9E706AA944617230A21634484
:1028F000300001341D1900F0D9FE3031297030004C
:102900000A21013F00F0D2FE092E46D90600202CF4
:10291000E9D155460CAB20249A46B8E704223B4B3C
:1029200096E71E9A1F9B0020002101F0FAF8012370
:102930000B938023229C229ADB001E901F911C4047
:102940001A4200D0FCE60022314B0627069207937C
:102950000DE7229B0393219B0293042301932D4BAC
:102960007BE7002208980999264B01F03DF90028E1
:1029700000D02FE7002E4FD101362BE70323229AF8
:102980001340012B68D0202CA6D00B9B002B1FD00E
:102990002D235246135501349EE75546202CB9D0BD
:1029A00030223B19002F4BD0172006A901340918FB
:1029B0000A55202CAED09C42F6D10CAA92462E226B
:1029C00051465C1CCA5462E72024CCE6202C83D0FC
:1029D000229B5B0708D4229B1B0700D47CE72023A3
:1029E00052461355013477E72B23524613550134D1
:1029F00072E7C046FFFFEFFFFFFFEF7F65CDCD41E0
:102A000065CDCDC10000E03FE0810010D88100100D
:102A100080842E41E8810010F30700D4DAE6013605
:102A2000D8E6219B013B2193A34200D946E7AAE7C0
:102A3000229B0393219B029303230193084B0CE7F2
:102A40002300BAE7074BEA009B185C681B682F005D
:102A50000693079400248AE6219B002B93D020E75D
:102A6000E481001090830010F0B5DE4657464E46D4
:102A70004546E0B59FB01C00289B93460A93CC4A7C
:102A8000CC4B8A4609901A60002900D14DE1002301
:102A900020789946002800D14FE1C74B4D46089356
:102AA000C64B0D930AE02A006E1C5B46099D5146F9
:102AB000A847350001342078002872D02528F2D1AB
:102AC00010239946083B9846043B00219C46022768
:102AD0000134207826000300203BDBB2102B03D802
:102AE000089A9B00D3589F460300303B092B6ED9B0
:102AF00000272A2800D18AE000230B932E2800D13A
:102B000076E00300683BDBB2122B1BD8AC4C9B0079
:102B1000E3589F46012301341943DAE7394301346E
:102B2000D7E7634601341943D3E74B4601341943D1
:102B3000CFE7434601341943CBE780235B0070782D
:102B40001943013667280AD824281FD90300253BDA
:102B5000DBB2422B1AD80D9A9B00D3589F46030034
:102B6000693BDBB20F2B11D801249C40954AA44647
:102B7000904614400C9462464446224200D025E21E
:102B80000A2B00D101E1072B00D1D8E0099C2A00D3
:102B90005B465146A04770786F1C741C3D000028AE
:102BA0008CD1A9462C00CB4503D801235B425B4462
:102BB00099465B464A4651460020099DA847200099
:102BC0001FB0F0BCBB46B246A946A046F0BD0027E8
:102BD000BB00DF1901367F003F183078303F03001B
:102BE000303B092BF4D900230B932E2800D088E723
:102BF00080237078DB0019430300303B741C092BE1
:102C000000D82CE12A2800D138E1260079E70A9B78
:102C100080CB002F03DB60780A93661C6CE70222EE
:102C2000607811437F420A93661C65E7672800D1EC
:102C3000C8E1472800D104E2452800D104E207207A
:102C40000A9B04910733834319000B9A039702925E
:102C50000CC90998009201930A912A005B465146DB
:102C6000FFF7F6FA741C050025E770786C2800D190
:102C70000DE280235B001943013663E780239B004C
:102C80007078194301365DE77078682800D1F9E162
:102C900080230136194355E7462800D18FE10720EC
:102CA0000A9B04910733834319000B9A03970292FE
:102CB0000CC90998009201930A912A005B4651467B
:102CC000FFF7F0FC741C0500F5E62A00099C5B4642
:102CD000514625206F1CA0473D00741CEBE6890778
:102CE00000D4DEE10A9B2A0098466B1C99464346B5
:102CF00001CB51469846099C5B46C0B2A047ED19EE
:102D0000012F00D893E24C46B1465646099F220057
:102D10005B46013431002020B847AC42F7D1B246BF
:102D200043464E460A93741CC5E6274B2078099308
:102D300000239946002800D0AFE6002433E70A9B21
:102D40001A0008CA9046002B00D1A7E021200843B2
:102D50000EA98C461F2262440F27AC4681461500FF
:102D60000C9C02E0202C0CD013003800184001000D
:102D70003731092800D80739013429551A090F2B92
:102D8000F0D8654648460C9494E00A9B1A0008CA9D
:102D900012920B9A002A7BD102241A786442002AEC
:102DA0001DD0013418199C461C00030010E0C046D9
:102DB000692A001018130020F08100108082001092
:102DC0003482001041900000A91F00109C4203D0E3
:102DD000607801340028F9D16346E01A0C90802015
:102DE000C0008446084080466046014204D00B98EB
:102DF0000C9C844200D90C900220844608400A9022
:102E00006046084200D189E1101E00D170E14246BF
:102E1000002A00D11BE10B9A5B1B9046A844444654
:102E20002A00B84699465746B246099E09E05B46D5
:102E30003900551CB0474B46585D002800D12CE1A5
:102E40002A009442F3D156462500BA4647460A9BCB
:102E5000002B00D04CE1129B741C0A932BE600223D
:102E600093009B185B0001341A182078303A030055
:102E7000303B092BF4D926000B9242E60A9B02361E
:102E800004CBD043C01702400B9230780A9338E647
:102E90001A78002AA3D00B98441E82E7102308005A
:102EA00080279843113318430B00FF003B40394201
:102EB00000D14DE7082305930B9B2A0004931023B0
:102EC0000393002302930C9B0690019316AB00938F
:102ED00051465B460998FFF7B1F843460500741C5C
:102EE0000A93E8E5622800D1A6E1582800D1B1E1B3
:102EF00080230A00DB001A409046194200D189E184
:102F0000112399438C46802362469B001A4010008F
:102F100062461A4200D023E1802364465B001C40D5
:102F20001A4200D032E263465B0600D56BE163468D
:102F30000A991B0600D4DBE208C91BB2DA179818FD
:102F4000504080B20A91DA0F0C92002B00D118E2A7
:102F500080460EAA91461F234B441395E1464546F1
:102F60001297B0461E0001E0202C0FD028000A2145
:102F700000F09CFB013437193031397028000A21E8
:102F800000F094FB2F000500092FEDD84646CC46F3
:102F9000129F139D634606930B9B059704930A2388
:102FA00003930C9B029316AB2A00019400935146A5
:102FB0005B460998FFF742F8741C05007BE5202367
:102FC00019436CE680231B01194338E6782800D0AA
:102FD0007CE180230A00DB001A409146194200D1AF
:102FE000A5E20D239943080003330C9380230200CC
:102FF0009B001A409046184200D078E180230400DC
:103000005B001C40184200D007E2430600D453E2A4
:10301000FF210A9B04CB0A4090460A934346002BAB
:1030200000D026E1103398434B46002B00D120E11D
:1030300000240B9B069004930C9B0597039300239D
:10304000B0E780231B01194320231943F7E55B1BDD
:1030500099460C9B099C98465B46B3465646BA4631
:103060001F002A003B003100A0474B460135585D48
:103070000028F6D143460C933B005746B2465E46C5
:103080009B46E4E6C023B078194302365AE5C023D4
:103090009B00B0781943023654E55646BA46474677
:1030A000D5E6012F00D832E26B1E9846B8442C00BA
:1030B000A9464546B8465746B246099E22005B4699
:1030C000013439002020B047AC42F7D10A9B564664
:1030D00001CBBA464746984622005B46099C5146BA
:1030E000C0B2A0474D464346ED190A93741CE2E472
:1030F0000C9BA8469F4200D8ADE64446B0465646D3
:103100007D19099FED1A22005B4601343100202011
:10311000B847AC42F7D1B24646469CE60C98874287
:1031200000D8F0E1424698467919B9465746B2466A
:10313000099E0C1A0C922A005B46013539002020AA
:10314000B047A542F7D15646BA464F4643460C9A79
:1031500090467A1C0C921A78101E00D057E67AE638
:103160000822072191460A9B07338B4399444A461C
:103170000ACB0C000A921C43DA0F002C4ED0D81751
:10318000040010904C4011900E94109811990C006E
:103190005C400F940E9B0F9C1B1A8C410E930F9456
:1031A0000EA988461F23002443441297B0462700E7
:1031B00013951E000E9C0F9DE1460C9201E0202FFE
:1031C00010D0200029000A22002300F0ADFA0137B8
:1031D00030322B00F2550D0022000400002BEED1FE
:1031E000092AECD84646CC460E940F950C9A3C0022
:1031F000139D129F634606930B9B059704930A2326
:1032000002920393CFE6FF230A9904C913401800E2
:103210000A9198E6102399438C4674E643460024AD
:10322000002BE7D1002300240E930F94B8E7434608
:103230004D460A93741C3EE480230A00DB001A40CA
:103240009146194200D140E10D2399430B3B080000
:103250000C93CBE680230A00DB001A40914619420A
:1032600000D162E10D2320209943033308430C93DE
:10327000BCE66123810600D541230EA91F228C469E
:10328000DBB262440A3B13971495814645460C9F76
:10329000B0461293160008E03033DBB201343355E8
:1032A000BD420ED3202C0CD005003900280000F0C0
:1032B000FDF9CBB20929EFD9129A94466344DBB2E7
:1032C000ECE746464846139F149DB2E66F2800D0AF
:1032D0003CE10C230800984380230A00DB001A40DD
:1032E0009146194200D02AE108230C937EE60A9900
:1032F000FA3BFF3B0731994301339C468C446346BC
:103300004A680A930B6890469C461343191E06D1DF
:103310004B46103100248843002B00D089E6612100
:10332000830600D541210EAA91461F234B4499469E
:10333000C9B20C9B0A3913971495159645464E460B
:10334000002467469846814612910CE03032D2B292
:10335000002301343255AB4200D1BCE0202C00D117
:10336000BCE007000D00424600233800290000F0B1
:10337000DBF9D2B2092AE9D9129B9C466244D2B247
:10338000E6E74346002B00D004E6E2E50A9C08CCC1
:10339000DA0F1392002B00D1A5E0D9175B184B4030
:1033A00098460EAA91461F234B440C95A1464546CC
:1033B0001296E04606001C000A9701E0202E0FD06E
:1033C00028000A2100F072F90136A719303139704E
:1033D00028000A2100F06AF92F000500092FEDD816
:1033E000C4464C4630000A9F0C9D129E63460693CD
:1033F0000B9B2A0004930A230393139B01900293CF
:1034000016AB009351465B4609980597FEF716FEEA
:103410000A940500741CFFF74EFB0A9B10CB149313
:10342000002C04D1102398434B46002B2CD1612350
:10343000810600D541230EA91F228C46DBB26244CF
:103440000A3B12971395814645460C9FB0460A9356
:10345000160008E03033DBB201357355BC420ED3A1
:10346000202D0CD004003900200000F01FF9CBB251
:103470000929EFD90A9A94466344DBB2ECE748463F
:103480004646129FA846139D0B9B2A0004930C9B53
:1034900006900393002302934346019316AB0093D7
:1034A00051465B4609980597FEF7C8FD149B050039
:1034B0000A93741CFFF7FFFA03061FD50A9B02CB81
:1034C00009040A0C90460A93A8E50C2399430A3B89
:1034D00008000C938AE5B84500D83FE74846139F9B
:1034E000149D159EA5E54346002B00D07EE758E7C6
:1034F00008C9DA17981850400A9124E50A9B04CBB2
:1035000090460A938AE5010001310C9124E60A9F56
:103510006C1C01CF2A005B46099D5146C0B2A847EA
:1035200025000A97741CFFF7C6FA202319430C23C1
:10353000994300239946103308000C9356E508235D
:103540008C460C930D23604698434FE510230A00E8
:103550009A439446692808D180230A00DB001A4068
:103560009046194200D1CEE4CAE41C2308009843D7
:1035700080230A00DB001A409146194202D10A2337
:103580000C9333E50A230C93DCE7C04600B585B005
:103590000391012102900093034813004A4202A9BB
:1035A000FFF762FA05B000BD4122001010B5094ACC
:1035B0000300146884B0002C08D001220091064852
:1035C000524203A9A047012004B010BD00F01AFD2B
:1035D0000020F9E7181300203122001001480421CF
:1035E000014B18479005002019360010014B9B68CD
:1035F0001847000090050020142310B5010018881A
:1036000004331B88984710BD162310B50100188895
:1036100002331B88984710BDF8B54746CE4680B5A3
:103620000F1E19D0142399460433040000250126E7
:1036300098464B461888434621681B88984701C422
:10364000431E9841013540420640AF42F1D130005F
:10365000C0BCB946B046F8BD0126F8E7124A936FE0
:103660009B0815D29066D166002905D0FFE7FFE7D9
:10367000FFE7516F106F704704B580210906C2172C
:103680005140002800D0C84304F03AFD002104BD99
:10369000F0B5146E556E576F166FFFF7E3FF1466A3
:1036A000556657671667F0BD000000D0114A936F4A
:1036B0009B0813D210665166002905D0FFE7FFE78B
:1036C000FFE7516F106F704704B5002801D000204C
:1036D000C04304F015FD002104BDC046F0B5146ED2
:1036E000556E576F166FFFF7E5FF146655665767FF
:1036F0001667F0BD000000D094464A4A926F9208C7
:10370000624601D228E0C046F0B5464E346E756E72
:10371000776F366F00F020F89446424A146655667B
:10372000576716676246F0BD94463E4A926F92080C
:10373000624601D254E0C046F0B53A4E346E756E22
:10374000776F366F00F04CF89446364A146655662B
:10375000576716676246F0BD002B24DB11D00029A5
:103760003EDA00B5C943404200D1013100F038F8DB
:10377000C943404200D10131DB43524200D1013301
:1037800000BD002AEBD1002801D1002905D000207E
:10379000C90FC90701D1C043410800B504F0A0FC1E
:1037A0000022002300BD00B500290ADBDB435242A2
:1037B00000D1013300F014F8C943404200D1013177
:1037C00000BDC943404200D10131DB43524200D128
:1037D000013300F005F8DB43524200D1013300BD54
:1037E000002923D1002B18D1002A0CD0BC460D4F44
:1037F00038667A6600210023FFE7FFE7FFE77A6F6C
:10380000386F67467047002801D00748010000B5AF
:1038100004F066FC0022002300BD02000B00002023
:1038200000217047000000D0FFFFFFFF002B00D0F9
:10383000BFE0130C28D1002AE7D080B4114F3966BD
:103840007A66FFE7FFE730B4040C7B6F396F1B0427
:1038500023433B667A66FFE7FFE7FFE7C04684B293
:103860007B6F3D6F1B0423433B667A66FFE7FFE7F0
:10387000C04600232C042D0C7A6F386F0019694163
:10388000B0BC7047000000D0F0B594460025140E7F
:1038900001D112020835140F01D112010435940F21
:1038A00001D192000235D40F01D152000135D40B61
:1038B0000134254F7C66254C3C660E0C93B2FFE725
:1038C000FFE7FFE73C6F6643360C7703BE46734362
:1038D000DF0B5B04C01AB941130C7343DB18C91A20
:1038E000CE086643360CB64493B273431F0F1B01D8
:1038F000C01AB941130C73431F0B1B05C01AB94101
:10390000860D8F023E436643360C092D24DB520A96
:103910007243801A7703460A6643360C16235B1BF4
:10392000DE40DF40BF1964466643821B70460435A3
:1039300006330100D940A840C01900D30131A2428A
:1039400006D20023F0BD0000000000D0FFFFFFFF03
:10395000121B0130F3D3F1E709277F1BFE406446B9
:10396000A2B27243801A00D20139220C7243130CA6
:103970001204821A99410B00704604351337010076
:10398000F940A840801900D30131002B02D1A24296
:103990000AD2F0BD013000D30131121BFAD2013B33
:1039A000F8D1A24200D2F0BD013000D30131121B88
:1039B000F7E7F0B51C0C00D080E00CB400251C0A21
:1039C00004D11B02160E3343120208351C0B04D11E
:1039D0001B01160F3343120104359C0B04D19B00CD
:1039E000960F334392000235DC0B02D192185B41F3
:1039F00001351C00971864410134464F7C66464CE3
:103A00003C660E0CFFE7FFE7FFE7C0463C6F6643EE
:103A1000360C7703BE4697B27743C01B00D20139FC
:103A2000C01B00D201399FB27743C91BC91B170CB9
:103A300077437E04FF0B801BB941CE086643360CEA
:103A40000C2D33DBB644120B1F053A431B0B97B208
:103A50007743C01B00D201399FB27743C91B170CB3
:103A600077433E043F0C801BB941860D8F023E43D5
:103A7000664329277F1BFE400C3D7746AF40BF19A8
:103A800030BCA2B2ABB272437343801A9941220C8C
:103A90007243130C1204801A994102000B00013783
:103AA000001BA941F9D2781E0021F0BD0C277F1B15
:103AB000FE4077467F0BAF40FF19E0E700245D1C16
:103AC00007D0144F7D663966FFE7FFE7FFE7FFE7A2
:103AD0003C6F95B29EB265436643401BB141150CE5
:103AE0001E0C6543664336042F0C3E432D04401BD9
:103AF000B141994204D202000B0020000021F0BD28
:103B000001D19042F7D3801A994101349942F2D3FE
:103B1000F6E70000000000D0FFFFFFFF48404140F3
:103B2000484018B4134B5B68019308BD18B4114B9F
:103B30001B68019308BD94460F4A926F920805D204
:103B4000624618B40B4BDB68019308BD0A4AF0B516
:103B5000146E556E576F166F6246FFF7F2FF064AF6
:103B60001466556657671667F0BD18B4014B9B681D
:103B7000019308BD80070020000000D0FFB5504031
:103B80004240504059404B40594000E0FFB5154F6E
:103B90004C00640D03D0BC4204D10C0314D80020A7
:103BA000090D09055C00640D03D0BC4204D11C035F
:103BB0000AD800221B0D1B0501264B4009D44B409F
:103BC00003D58B4200D18242FFBD9942FCD1904285
:103BD000FFBD0B43DB1803431343F5D0C94349181A
:103BE000FFBD0000FF07000000B5FFF7CFFF8041D9
:103BF00000BDC04600B5FFF7C1FF01D9002000BDE0
:103C0000012000BD00B5FFF7B9FF804100BD0120D4
:103C100040054A00121804D85A00121801D8002092
:103C200070470120704700207047000000210028E5
:103C300005D17047C1174840401AFAD0C90713B5DB
:103C4000064B1B6898470CBC441CA2401005120B85
:103C50000349091B09051943114310BD3C130020FA
:103C60001F04000010B54C00620D8023D218DB0049
:103C7000D21A5B057E2A10DD9E3A13DACC170903AF
:103C8000490819435242D140640001341532202AB8
:103C900005DAD0400843604310BD002010BD08463F
:103CA000604310BDC80FC018013810BD18B4024BD6
:103CB0005B6A019308BD00008007002010B5014831
:103CC000FEF754F9E0830010132370B51D78012D21
:103CD00015D010DD1B48FFF797FC1B4C010080221C
:103CE000200000F0ADF8022D06D01848FFF784FC44
:103CF000174B186070BD144C164BA364F5E7164BB8
:103D0000114C23606360A360E36023616361A3617E
:103D1000E36123626362A362E36223636363A36379
:103D2000E36323646364A364E36423656365A36559
:103D3000E36523666366A366E36623676367A36739
:103D4000E367D9E753440000800700204C330000AC
:103D50003C1300205D3D0010BD3C001007B56046DF
:103D600001880A0A0230DF2AFAD1C9B2820804D3D4
:103D7000028840880004104300E00068014A505067
:103D8000039007BD8007002051434343C9188C4668
:103D9000110C83B24B4310B4040C614392B280B255
:103DA000504362431C041B0C001910BC59411304FE
:103DB000120CC018514161447047000010B5014811
:103DC000FEF7D4F8C4850010132310B510481C78F2
:103DD000FFF71AFC0100012C0AD003DD80220D48F8
:103DE00000F02EF80C48FFF707FC0C4B186010BDD4
:103DF000084C5422200000F023F8220008498032A9
:103E00002368002B00D1216004349442F8D1E9E703
:103E100053460000401300204C3300003C130020A8
:103E2000BD3D001001480421014B1847A0050020AA
:103E300019360010014B1B6818470000A005002030
:103E4000014B5B6818470000A0050020F0B546460E
:103E50004F46D646C0B5437D80460E001700002B66
:103E60004BD0002A32DD274B01259A464B1E0024F9
:103E70000020994607E0335D0A2B2CD02B0001343B
:103E80000135BB4213DA002CF5D133780A2BF5D17A
:103E900043461B7D002BF1D14346504602211B684F
:103EA000984728002B0001340135BB42EBDB8742E9
:103EB00004DD4346391A1B6830189847F619013E4D
:103EC00033780D3B5A42534142461375E0BCBA4623
:103ED000B146A846F0BD4B461B5D0D2BCED0A0428F
:103EE000DADA4346211A1B68301898474346504691
:103EF00002211B6898472800D4E7036811003000AE
:103F00009847E3E75C840010F0B5C6460B680600EE
:103F10000C0000B5802B06D05A1C2260E4182671D4
:103F200080BCB846F0BD0F4B1D68002D16D00B1D90
:103F300098460D4F02E02D69002D0FD02B68002B05
:103F4000F9D03B68002B01D0AB42F4D128004146A8
:103F50002268FFF77BFF2D69002DEFD1012200239E
:103F6000DBE7C0461013002014130020F0B5CE4646
:103F7000474680B583B06B460600DD1D2870FDF70F
:103F800071FA00231A4A12184B41802109068B420C
:103F900002D30122174B524217490800884604F009
:103FA000BFF8164B81461C68002C14D0144F02E059
:103FB0002469002C0FD02368002BF9D03B68002B1C
:103FC00001D0A342F4D1200001222900FFF73EFFD7
:103FD0002469002CEFD14B46002B05D1300003B0F3
:103FE000C0BCB946B046F0BD404604F071F8F5E7F4
:103FF00040420F00FFFFFF7FF0050020101300205C
:1040000014130020F0B5DE4657464E464546E0B54F
:1040100085B0070003F0E2FF0600FDF723FA002356
:104020002B4A12184B41802109068B4202D30122F0
:10403000284B5242284908008B4604F071F8274B60
:1040400001901C689A46002C3BD0254B984602AB49
:10405000DD1D0A23994602E02469002C17D023684D
:10406000002BF9D043461B68002B01D0A342F3D1AB
:10407000200032003900FFF7E9FE4B462000012204
:1040800029002B70FFF7E2FE2469002CE7D1019B89
:10409000002B18D153461C68002C06D06368002BF7
:1040A0000BD098472469002CF8D1300005B0F0BC43
:1040B000BB46B246A946A046F0BD2469002CEDD10E
:1040C000F3E70028F1D0584604F002F8E2E7C046D2
:1040D00040420F00FFFFFF7FF0050020101300207B
:1040E000141300200A4A1368002B05D10CE01A00B3
:1040F0001B691032002B07D09842F8D1002902D159
:1041000003691360016170470029FCD01060FAE771
:1041100010130020F0B5CE46474680B5A3B004008A
:104120000D00FDF79FF90023294A12184B41802109
:1041300009068B4202D30122264B5242264F3800F9
:1041400003F0EEFF00230600019322002B0023481A
:1041500001A9FFF71BFA019B8046002B14D1204BCD
:104160001C68002C06D06368002B0BD0984724698C
:10417000002CF8D1002E25D1404623B0C0BCB94652
:10418000B046F0BD2469ECE7154B1D689946002D3B
:104190001CD0144C02E02D69002D0FD02B68002B91
:1041A000F9D02368002B01D0AB42F4D12800019A4A
:1041B00002A9FFF74BFE2D69002DEFD14B4601956B
:1041C0001C68CEE7380003F083FFD5E70195D1E7FF
:1041D00040420F00FFFFFF7FF0050020093F001065
:1041E00010130020141300200FB400B583B004A9ED
:1041F00001C90191FFF78EFF03B008BC04B0184756
:1042000010B500F0CFF8012010BDC046F0B5002970
:1042100015DD0E4B0D271A680D4B0E4CD3185D4261
:104220006B41451820215B001E5F0478A64207D031
:1042300093691942FCD101301460A842F5D1F0BD58
:1042400093691942FCD11760F2E7C0465814002068
:104250000080FCBF5414002030B504000D1E30DD7A
:1042600000201021204B013C1A689369194217D194
:10427000013093691942FCD1136823548542F4D16B
:104280001A4B1B68002B09D0502338219363536BC2
:104290003432194080235B011343196028000FE07A
:1042A000124B1B68002B09D0502338219363536BAA
:1042B0003432194080235B011A431160002810D06A
:1042C00030BD0A4B1B68002B0BD050223821064B07
:1042D0001B689A635A6B3433114080225201134396
:1042E000196003204042EBE758140020DC0900204D
:1042F000064B10B51B68002B06D00021044A12683B
:104300009163044A1068984710BDC046DC0900203C
:1043100058140020E00900201D4BF0B51A68C6466D
:1043200098461C4B0E00D31859424B411A4F143378
:104330001C00050000B53B68002807D0002B11D0F9
:10434000164B3D601E6080BCB846F0BD002BF7D018
:10435000906300212000FCF7A1F920001049FCF730
:10436000E3FAEDE720000E49FCF7BAF9012120003D
:10437000FCF794F94346502238211B689A635A6B24
:10438000343311408022520113431960D8E7C046EC
:10439000581400200080FCBFDC090020E009002048
:1043A000F142001010B50C4B0C4C1B780C4B022149
:1043B0001B780C4B00202360FBF7F4FF0221012047
:1043C000FBF7F0FFE12120684902FDF711FB012115
:1043D0000548FFF787FE10BD1CFE0310581400208F
:1043E00018FE031000400340B0050020014B186088
:1043F0007047C046B408002010B5034B0A00010006
:10440000180002F0F1FF10BDF0090020014B186800
:104410007047C046B408002010B582B0FFF7F6FF21
:10442000002807D003F084FA03000020002B10D0EE
:1044300002B010BD684603F0BBFC0F4C694620007B
:1044400003F0BCFC002813D02000FFF7CFFF2000B2
:10445000E8E7FFF7DBFF040003F086FA064B9C4217
:1044600006D1236820005B6B98470020FFF7BEFF52
:1044700002204042DCE7C0463806002010B5024862
:1044800000F00CF810BDC0463413002010B508220F
:104490000149FFF7D5FC10BD3413002030B50025CD
:1044A00089B004000922002101A80095FFF7C2FC91
:1044B0000922002105A80495FFF7BCFC4B236A469E
:1044C0006846137004A90D2203F0FAFD1521082295
:1044D00020006944FFF7B4FC09B030BD10B50520D9
:1044E000FDF750FC030C642003495843FFF7DEF846
:1044F0000338FDD210BDC0469A3B0000F0B54E46D1
:104500004546DE465746E0B5604E050083B03100B3
:104510005F4802F0E9FF002809D131005D4802F050
:10452000E3FF002800D1AEE006225A4801E007224E
:1045300057488423584C1B01EC509A46FF23002116
:1045400020602372E371227102F0B0FF40B2A071CB
:10455000002800DA6EE03100206802F0F9FF40B276
:10456000421D60714D4BC001120302431A403023BB
:104570004B48C8270168B8468B434A4980270B60DF
:104580000368012084469843086020688023010066
:104590009B0138310B438021490419600621BF0279
:1045A000B946615693464B005B18DB00C31898442C
:1045B00047464A463A60CC229046984442465F4677
:1045C00017601A00C027D032BF021760364ADC33AA
:1045D0001A6063461D22009303F0A0F81820217989
:1045E000FBF7E0FE012200211820FBF7F3FE01217A
:1045F0001820FBF701FF0621615623684A00521874
:10460000D2009B18294AD8331A60002003F0E4F83E
:10461000E071002003F0E0F8E27943B22372134323
:1046200000201B0606D403B0F0BCBB46B246A94628
:10463000A046F0BD5346EC58002C24D0062161560C
:1046400000290CDB0522A256531C05D0310020683E
:1046500002F0F6FF06216156206802F017FF0720DE
:104660002056002803DB03F0ADF8FF23E371082098
:104670002056002803DB03F0A5F8FF2323728423D0
:1046800000221B01EA5006204042CCE7BC84001007
:104690000000305000002050D0090020FFFFFF9F95
:1046A00078C0014078D0014018771C2401E0000058
:1046B00084231B0170B5C4580500002C1CD00621B2
:1046C000615600290CDB0522A256531C05D0124965
:1046D000206802F0B5FF06216156206802F0D6FE80
:1046E0000720205600280DDA08202056002804DA7A
:1046F000842300221B01EA5070BD03F063F8FF23FE
:104700002372F5E703F05EF8FF230820E3712056DB
:104710000028EDDBF1E7C046BC840010F0B54E4642
:104720004546DE465746E0B589461600984689B0AC
:10473000002900D10DE184231B01C45818202179E0
:10474000FBF730FE1D202179FBF72CFE0122002112
:104750001D20FBF73FFED02380221B0692049A61A6
:104760004346002B00D10FE1012506212A006156A6
:1047700020688A400368934303600523E3569C4600
:104780004B005B18DB00C718CC3703933B689A4695
:1047900063465A1DCD4B12039B46049253465A461C
:1047A0001340049A1A436346DB011A433A6080229D
:1047B000039B5201D033C3181343802212061A60A0
:1047C0001A6080235B041A0002F054FF06212F00B8
:1047D000615680200A1D97402368800118430760B6
:1047E0000F0005922A000837BA408F000260F000DF
:1047F000DF190138386148004018C000B44A181861
:10480000D8300260129A921BD200013A3A61B14F3D
:1048100007601F276279174007600727E757A02224
:10482000BD40AD48D20515509246BA019446802548
:10483000AA4A6D04624410682842FCD10822012073
:10484000A256A54D0392904052465051039A9501AD
:10485000A022D2059246A14AAA44934680225D44F2
:10486000520428681042FCD19D4AFF029D18681E20
:1048700085419C4AED004819C003174007439A48F8
:104880000792020005983A4387000497A027FF0586
:10489000BB46DC44674606924A463A60049FB0082D
:1048A000DF19B94667464A467A60069AB860FA60E8
:1048B000059A079F5219039DD203ED023D402A43FA
:1048C0008A4D049F2A43129D1037AD08281A554679
:1048D000DF192F6045465746AD197D60B860FA6014
:1048E00001228A40186802431A600722804B802107
:1048F0009C46A25649049201624413680B42FCD1C3
:1049000008227B4B80219C46A256490492016244B6
:1049100013680B42FCD1002132004046FFF78AFAAF
:104920000621615623684A005218D2009B18714A2A
:10493000D8331A60D02380221B0692045A61FFF7F5
:10494000CDFD002009B0F0BCBB46B246A946A0464A
:10495000F0BD4346002B00D1B5E084231B01C458B1
:1049600018202179FBF71EFD1D202179FBF71AFD88
:10497000012200211D20FBF72DFDD02380221B06E4
:104980009204C1469A61EFE6012706213A0061567A
:1049900020688A400368934303600523E3569C46DE
:1049A0004B005B18DB00C518CC3503932B689A4687
:1049B00063465A1C454B12039B46049253465A4683
:1049C0001340049A1A436346DB011A432A6080228B
:1049D000039B5201D033C3181343802212061A607E
:1049E0001A6080235B041A0002F044FE062039009E
:1049F00020562268031D99409A4680239B01134349
:104A0000196001003D0008318D4081001D60F300F8
:104A10005118013B0B6143001B18DB002C4DD318D0
:104A2000D8331D6045460D612A4919601F216579FB
:104A3000294019600723E356A0219F409C46264B3E
:104A4000C905CF5063469901A023DB05CF18234B3E
:104A5000802598466D0441440B682B42FCD1204BC5
:104A6000204DD318591E8B416146DB001B18C9022B
:104A70002940DB030B431C49B6080B434946396008
:104A800051468D0055197D60BE60FB600123010019
:104A90001D0018318D4083409560290015682B4317
:104AA000136093681942FCD00621012261562068E8
:104AB0008A40036893430360002318220093013364
:104AC00002F02CFE2CE7052040423BE77F00FEFF72
:104AD0002060000040600000440400000C00005012
:104AE0000000E0AFFD7F00FF1900400029004000FA
:104AF0001000005003A0000010B51720FBF7ECFCDD
:104B0000D024802324061B04002201216362172085
:104B1000FBF760FC1820FBF7DFFC80235B0463627B
:104B20001920A361FBF7D8FC80239B0463626361B7
:104B300010BDC04670B5D024802524062D04A56183
:104B40001420FCF7CDFB6561FA20FCF7C9FB1820A7
:104B5000FBF7C2FC80235B04A36270BD002300B599
:104B600085B003930A4BD2021A4008230907114368
:104B7000084A00930A4302AB52BA0021029204226F
:104B8000FFF7CCFD002801D1039840BA05B000BD65
:104B900000F8FF0F0400004010B54C1E63425C415A
:104BA000104BD202A4001A4009070A43231D1A43DE
:104BB0008023DB0586B0134303932300083300935F
:104BC0000422002103ABFFF7A9FD002807D1631ED3
:104BD0009C410C226B460134A4009B18185906B066
:104BE00010BDC04600F8FF0F10B54C1E63425C417B
:104BF000104BD202A4001A4009070A43A31C1A430F
:104C00008023DB0586B0134303932300083300930E
:104C10000422002103ABFFF781FD002807D1631EAA
:104C20009C410C226B460134A4009B18185906B015
:104C300010BDC04600F8FF0F10B54C1E63425C412A
:104C4000104BD202A4001A4009070A43631C1A43FE
:104C50008023DB0586B013430393230008330093BE
:104C60000422002103ABFFF759FD002807D1631E82
:104C70009C410C226B460134A4009B18185906B0C5
:104C800010BDC04600F8FF0FF0B55BBADE464546E2
:104C900057464E46E0B585B003938423694CD20253
:104CA000224009071B011143674AC4580A4352BAFC
:104CB000029218202179FBF775FB1D202179FBF763
:104CC00071FB012200211D20FBF784FBD0238022F1
:104CD000012706211B0692049A613A00615620685A
:104CE0008A40036802AD934303600523E3569C4664
:104CF0004B005B18DB00C618CC369A4633689846E2
:104D000063465A1C13039B46504B994643464A46FA
:104D100013405A461A436346DB011A435346326036
:104D20008022D033C31852011343802212061A6026
:104D30001A6080235B041A0002F09CFC06203900F4
:104D400020562268031D9940984680239B011343F7
:104D5000196001003E0008318E401E603F23810033
:104D600051180B6143001B18DB00394ED318D833A0
:104D70001E6000260E61374919601F216679314097
:104D800019600723E356A0219F409C46324BC9057A
:104D9000CF5063469901A023DB05CF182F4B802607
:104DA0009946760449440B683342FCD12C4B2D4E76
:104DB000D318591E8B416146DB001B18C9023140D4
:104DC000DB030B4328493D600B4341468E00022123
:104DD00096197E60B960FB60012301001D00183147
:104DE0008D4083409560290015682B4313609368BC
:104DF0000B42FCD006210122615620688A400368DC
:104E000093430360002318220093013302F086FCD1
:104E10000621615623684A005218D2009B18134A93
:104E2000D8331A60D02380221B0692045A61FFF700
:104E300055FB002005B0F0BCBB46B246A946A046D3
:104E4000F0BDC04600F8FF0F040000C07F00FEFF69
:104E50002060000040600000440400000C0000508E
:104E60000000E0AFFD7F00FF1900400003A000003C
:104E7000F0B54546DE4657464E46E0B5704CD20288
:104E800022400C0722436F4C85B0224302AD0292B0
:104E90006B6001290AD108246B4944506B49425088
:104EA0006B4A8350852382681B01C25084231B01F7
:104EB000C45818202179FBF775FA1D202179FBF7DA
:104EC00071FA012200211D20FBF784FAD0238022F1
:104ED000012706211B0692049A613A006156206858
:104EE0008A400368934303600523E3569C464B00C6
:104EF0005B18DB00C618CC369A4633689846634682
:104F00005A1C13039B46534B994643464A4613404B
:104F10005A461A436346DB011A43534632608022E5
:104F2000D033C31852011343802212061A601A604C
:104F300080235B041A0002F09DFB062039002056F6
:104F40002268031D9940984680239B0113431960F2
:104F500001003E0008318E401E603F238100511841
:104F60000B6143001B18DB003B4ED318D8331E6087
:104F700000260E61394919601F2166793140196098
:104F80000723E356A0219F409C46354BC905CF50CF
:104F900063469901A023DB05CF18324B8026994642
:104FA000760449440B683342FCD12F4B2F4ED31863
:104FB000591E8B416146DB001B18C9023140DB03DF
:104FC0000B432B493D600B4341468E00022196194D
:104FD0007E60B960FB60012301001D0018318D4027
:104FE00083409560290015682B43136093680B423A
:104FF000FCD006210122615620688A400368934351
:105000000360002318220093013302F087FB06217E
:10501000615623684A005218D2009B18154AD833AB
:105020001A60D02380221B0692045A61FFF756FAB9
:10503000002005B0F0BCBB46B246A946A046F0BD74
:1050400000F8FF0F040000C04C08000044080000F6
:10505000480800007F00FEFF206000004060000064
:10506000440400000C0000500000E0AFFD7F00FF92
:105070001900400003A00000F0B54546DE46574643
:105080004E46E0B5704CD20222400C0722436F4CD2
:1050900085B0224302AD02926B6001290AD1082437
:1050A0006B4944506B4942506B4A83508523826858
:1050B0001B01C25084231B01C45818202179FBF71F
:1050C00071F91D202179FBF76DF9012200211D20C6
:1050D000FBF780F9D0238022012706211B069204CA
:1050E0009A613A00615620688A40036893430360DE
:1050F0000523E3569C464B005B18DB00C618CC36F4
:105100009A463368984663465A1C13039B46534B92
:10511000994643464A4613405A461A436346DB01C2
:105120001A43534632608022D033C31852011343CE
:10513000802212061A601A6080235B041A0002F0B3
:1051400099FA0620390020562268031D9940984696
:1051500080239B011343196001003E0008318E40FB
:105160001E603F23810051180B6143001B18DB00B8
:105170003B4ED318D8331E6000260E6139491960A2
:105180001F216679314019600723E356A0219F4013
:105190009C46354BC905CF5063469901A023DB05DA
:1051A000CF18324B80269946760449440B68334227
:1051B000FCD12F4B2F4ED318591E8B416146DB007B
:1051C0001B18C9023140DB030B432B493D600B43E5
:1051D00041468E00022196197E60B960FB60012372
:1051E00001001D0018318D4083409560290015682D
:1051F0002B43136093680B42FCD0062101226156B9
:1052000020688A40036893430360002318220093B8
:10521000013302F083FA0621615623684A005218CE
:10522000D2009B18154AD8331A60D02380221B065F
:1052300092045A61FFF752F9002005B0F0BCBB465A
:10524000B246A946A046F0BD00F8FF0F020000C01C
:105250004C08000044080000480800007F00FEFFE2
:105260002060000040600000440400000C0000507A
:105270000000E0AFFD7F00FF1900400003A0000028
:10528000F0B54546DE4657464E46E0B5704CD20274
:1052900022400C0722436F4C85B0224302AD02929C
:1052A0006B6001290AD108246B4944506B49425074
:1052B0006B4A8350852382681B01C25084231B01E3
:1052C000C45818202179FBF76DF81D202179FBF7D0
:1052D00069F8012200211D20FBF77CF8D0238022F1
:1052E000012706211B0692049A613A006156206844
:1052F0008A400368934303600523E3569C464B00B2
:105300005B18DB00C618CC369A463368984663466D
:105310005A1C13039B46534B994643464A46134037
:105320005A461A436346DB011A43534632608022D1
:10533000D033C31852011343802212061A601A6038
:1053400080235B041A0002F095F9062039002056EC
:105350002268031D9940984680239B0113431960DE
:1053600001003E0008318E401E603F23810051182D
:105370000B6143001B18DB003B4ED318D8331E6073
:1053800000260E61394919601F2166793140196084
:105390000723E356A0219F409C46354BC905CF50BB
:1053A00063469901A023DB05CF18324B802699462E
:1053B000760449440B683342FCD12F4B2F4ED3184F
:1053C000591E8B416146DB001B18C9023140DB03CB
:1053D0000B432B493D600B4341468E000221961939
:1053E0007E60B960FB60012301001D0018318D4013
:1053F00083409560290015682B43136093680B4226
:10540000FCD006210122615620688A40036893433C
:105410000360002318220093013302F07FF9062174
:10542000615623684A005218D2009B18154AD83397
:105430001A60D02380221B0692045A61FFF74EF8AF
:10544000002005B0F0BCBB46B246A946A046F0BD60
:1054500000F8FF0F010000C04C08000044080000E5
:10546000480800007F00FEFF206000004060000050
:10547000440400000C0000500000E0AFFD7F00FF7E
:105480001900400003A00000F0B50500481E1E00F2
:1054900043425841194F8000D2023A403718090759
:1054A0003A430A43802144424441C9050A43032147
:1054B000231D9B00EB185A60F21C8A43053404320A
:1054C000121883B0A3000092002104222800EB18D8
:1054D000FFF724F9041E0BD12900089B1C319942C7
:1054E00003D032001800FEF7ABFC200003B0F0BD83
:1054F00021000348FEF778FEF7E7C04600F8FF0FEB
:10550000A0840010F0B5574645464E46DE4692460A
:105510009946DA1C0323E0B59A4305000F00904634
:1055200087B0022924D02800109B1C3098423CD020
:1055300019005346DE02234B3F071E404B461F43D4
:10554000C0233E431B0633434A46AB61FEF778FC5B
:105550004246290000232800043218310093FFF747
:10556000DDF807B0F0BCBB46B246A946A046F0BD88
:10557000154BFA249B460826A400013C0FD35B463A
:105580000422039300212800009603ABFFF7C6F81E
:10559000002800D104988006EFD5002CC3D10B4819
:1055A000FEF730FD06204042DBE75346DE02054BA6
:1055B0003F071E404B461F43C0233E431B06334359
:1055C000AB61C5E700F8FF0F04400040BC86001047
:1055D000836870B5CC0B0500E403A3420DD0802294
:1055E00063405204934219D2FF22120413420CD199
:1055F000FF221202134201D1AC6070BD01212800CC
:105600000A4A230AFFF73CFEF6E7230C0121280093
:10561000074AFFF735FEAB686340E9E7230E012137
:10562000044AFFF72DFEAB686340DDE70A00010086
:105630000B0001000C000100F0B5C646033000B5B8
:105640008E1E840810D0631E072B03D90B00334332
:105650005B0721D03200A4003419938855881B04BD
:105660002B4308C2A242F8D10B885BBA73808B1C13
:105670001A6813BA73608B1D186803BAB3600B0005
:105680000A331B681BBAF3608A23DB059A421BD0DE
:10569000300080BCB846F0BDC3089C46DB0030003B
:1056A0000D009846CF180CCD0CC0BD42FBD163460F
:1056B0005F004346F518C818BC42D5D0438802881D
:1056C0001B0413432B60CFE780231B059842DFD1D7
:1056D0000B000A000D00B232AE3310681B882E3565
:1056E0002A691C18944216D83A31C9180818814200
:1056F0003AD20027002404E0DD2A10D0C9188842DD
:1057000020D94B780233CA189042F7D30A78302A4E
:10571000F2D10C00F2E701235B42B360B8E78A1CC8
:1057200090468A78002AE9D142465278502AE5D13B
:1057300042469278F22AE1D14246D278012ADDD15E
:105740000F00DBE7631E9C41A400002F01D0022262
:105750001443AA8BD20601D5012214438422B15CE2
:10576000B1520432B45493E70024F2E7F0B5C646D0
:105770000E0005000B0000B501211A4AFFF780FD5D
:10578000330001212800174AFFF77AFD002E25D1AA
:1057900001230027984640240BE0012002F048F93D
:1057A000013C3300012128000E4AFFF769FD002C5F
:1057B0000FD0012128000B4AFFF73EFA0028ECDB4E
:1057C00042460240BA42E8D1FF28E6D080BCB84643
:1057D000F0BD31000448FEF707FDF7E70323032778
:1057E0009846D8E71F000100D0840010F0B5D646D7
:1057F0004F464646C0B5C37C05008A46170082B0B6
:10580000002B05D1006801F0CDFC002800D17DE01F
:10581000280001F0CDFCAB7C002B05D10121280034
:10582000FFF7A4FF0123AB74EB7C002B00D177E0E2
:10583000FA24A40002E0013C002C67D008220021D9
:105840002800FFF7A9F9431CF5D0C3055CD5C02299
:1058500003035B0D591ED200914200D3B9E08007CB
:1058600000D5B6E02C001C34002202212800009450
:10587000FFF70AFE00283FD1A98BEA8B002941D00F
:105880000123EB74644B9C460B005340634500D0EE
:10589000A9E0D24392B2914200D0A1E00B2900D8F6
:1058A000A8E02423EB5CAB732123EA5C123B13409A
:1058B000022B2ED82522AA5C944666466A7BB21A31
:1058C000D2B2142A46D90C2927D0012B54D0022B4E
:1058D00042D1102900D893E02323EA5C0220A218C9
:1058E000D3789B000433D31892781C1BD2070C1B6F
:1058F0001443524614603B6002B0E0BCBA46B14665
:10590000A846F0BD002ABBD10023EB740120404221
:10591000F2E70B2040420C29EED104204042EBE795
:10592000042200212800FFF75FF983B298463B4B21
:10593000040099461B88434502D0862303423CD18C
:105940004346002B3FD14B4642461A80A40600D561
:105950006EE7DBE76E73B6E71B2957D92323EB5CB1
:105960002D8AE3185A8995424DD1524610331C1B9B
:105970000C1B14603B60BFE710294AD92323EB5C62
:10598000E318DA78920004329B181A7B1C1B091B5F
:10599000882A32D15A7B6C2A2FD1DA7C002A26D170
:1059A0001A7D102A23D15A7D182A20D1524618393F
:1059B0001833116001203B609EE70104090C184870
:1059C000FEF712FCBCE7042200212800FFF754FB7D
:1059D000B9E7012301212800124AFFF751FC93E7A0
:1059E0000220404288E71048FEF7FEFB8EE70A20BF
:1059F000404281E7032040427EE7092040427BE7A6
:105A00000720404278E70620404275E705204042E3
:105A100072E7082040426FE7FFFF00005E1400209D
:105A2000F48400100D00010020850010F0B5DE4662
:105A3000574645464E460400E0B585B09A4688462E
:105A4000934601F0B5FBA37C002B05D1012120007A
:105A5000FFF78CFE0123A374A37B002B24D02D4FD2
:105A60002D4EBB6A99460EE0A17B002903D1227B13
:105A7000637B93421CD14B46ED1AB54241D8FA20C4
:105A8000800001F0BBFF200003AA02A9BD6AFFF756
:105A9000ADFE0128E8D103990298FFF7CDFD010082
:105AA000200001F08BFBDFE7227B637B9342D6D0A3
:105AB0005B4650460C3399B20180C9430271418064
:105AC0005146404648710021504681714046861E2D
:105AD000701E8641012076428643504601320E36C2
